:020000040000FA
:0400000007EF00F016
:100008004982FEED02F0F1EF02F021502210D8B43F
:1000180010EF00F012EF00F0C5EF01F023502410AC
:10002800D8A419EF00F01BEF00F089EF01F026BE0D
:1000380029EF00F0265007E1040E255CD8B027EF21
:1000480000F029EF00F0CFEF00F0F90E2A6E2F0E26
:100058002B6E5BEC02F0286ADB0E2A6E2F0E2B6EDD
:100068005BEC02F063EF00F02850D8B43EEF00F0EC
:1000780040EF00F063EF00F028500BEC03F026BED1
:1000880051EF00F0265007E1040E255CD8B04FEF81
:1000980000F051EF00F062EF00F00D0E2818D8B410
:1000A80058EF00F05AEF00F062EF00F025500E0F05
:1000B800D96EDA6A28C0DFFF254A262A286A0D0E7B
:1000C8002818D8A46AEF00F06CEF00F038EF00F0C1
:1000D800F90E2A6E2F0E2B6E5BEC02F026BE80EF17
:1000E80000F0265007E1040E255CD8B07EEF00F042
:1000F80080EF00F089EF01F0255004082F6E26509C
:10010800D8A0E82A0008306EFF0E2524396EFF0EAD
:1001180026203A6E3ABE95EF00F093EF00F097EF85
:1001280000F0ACEF00F039500E0FD96EDA6A395092
:100138000E0F2F24E16EE26ADFCFE7FF3906D8A061
:100148003A063ABEACEF00F0AAEF00F097EF00F0E5
:10015800000E346E000E336EBAEF00F033500E0FFF
:10016800D96EDA6A300EDF6E334A342A2F50335C88
:100178003450800A2C6E3050800A2C58D8A0C7EF13
:1001880000F0C9EF00F0B2EF00F0000E266E040E8A
:10019800256E89EF01F0286AEA0E2A6E2F0E2B6E63
:1001A8005BEC02F003EF01F02850D8B4DEEF00F06A
:1001B800E0EF00F003EF01F028500BEC03F026BE4F
:1001C800F1EF00F0265007E1080E255CD8B0EFEFFC
:1001D80000F0F1EF00F002EF01F00D0E2818D8B48E
:1001E800F8EF00F0FAEF00F002EF01F025500E0FE3
:1001F800D96EDA6A28C0DFFF254A262A286A0D0E3A
:100208002818D8A40AEF01F00CEF01F0D8EF00F09D
:10021800FC0E2A6E2F0E2B6E5BEC02F026BE20EF32
:1002280001F0265007E1080E255CD8B01EEF01F05A
:1002380020EF01F081EF01F025500808316E2650BB
:10024800D8A0E82A0008326EFF0E25243B6EFF0E68
:1002580026203C6E3CBE3CEF01F03C5007E1040E0A
:100268003B5CD8B03AEF01F03CEF01F03EEF01F013
:100278005AEF01F03B500E0FD96EDA6A3B500E0F61
:100288003124E16EE26ADFCFE7FF3B06D8A03C06E7
:100298003CBE5AEF01F03C5007E1040E3B5CD8B07D
:1002A80058EF01F05AEF01F03EEF01F0000E366E04
:1002B800040E356E68EF01F035500E0FD96EDA6A0C
:1002C800300EDF6E354A362A040E31242C6E000EAD
:1002D80032202D6E2C50355C3650800A2E6E2D50F3
:1002E800800A2E58D8A07BEF01F07DEF01F060EF77
:1002F80001F0000E266E080E256E000E266E000E0A
:10030800256E000E246E010E236E23042410D8A43B
:1003180090EF01F092EF01F0C5EF01F012C006F086
:1003280013C007F014C008F015C009F00EC00AF099
:100338000FC00BF010C00CF011C00DF0D6EC02F09D
:10034800000E386E000E376E37500E0FD96EDA6A0F
:10035800DF6A374A382A38BEBBEF01F0385009E166
:10036800090E375CD8A0BBEF01F0BDEF01F0A8EF94
:1003780001F0000E246E000E236E000E226E010E98
:10038800216E120020EC03F009EC00F08AEC02F078
:100398000009D8B4D2EF01F0D4EF01F035EF02F044
:1003A80020EE3DF0040EDE6AE806FDE220EE42F0A3
:1003B800040EDE6AE806FDE206C042F007C043F01C
:1003C80008C044F009C045F0466A0AC03DF00BC0B9
:1003D8003EF00CC03FF00DC040F0416AFC0E2A6EA2
:1003E8002F0E2B6E5BEC02F0E10E2A6E2F0E2B6E99
:1003F8005BEC02F03D0E2A6E2B6A5BEC02F0FC0E01
:100408002A6E2F0E2B6E5BEC02F0F00E2A6E2F0E6A
:100418002B6E5BEC02F0420E2A6E2B6A5BEC02F04C
:10042800FC0E2A6E2F0E2B6E5BEC02F0000E486E4F
:10043800000E476E47500E0FD96EDA6ADF6A474AD8
:10044800482A48BE31EF02F0485009E1090E475CDE
:10045800D8A031EF02F033EF02F01EEF02F0010EE8
:10046800276E0D0E2818D8A43CEF02F03EEF02F0DC
:10047800C8EF01F02704D8A444EF02F046EF02F0D9
:1004880053EF02F0000E226E010E216E000E246E54
:10049800000E236E000E266E000E256E276A285069
:1004A8000BEC03F0286AC8EF01F007EF00F071EFDA
:1004B80002F02AC0F6FF2BC0F7FFF86A050EF764B2
:1004C80003D00800F55005D0F6CFE9FFF7CFEAFFD3
:1004D800EF500BEC03F02A4A2B2A2AC0F6FF2BC058
:1004E800F7FFF86A050EF76403D00800F55005D049
:1004F800F6CFE9FFF7CFEAFFEF500009D8A487EF5E
:1005080002F089EF02F05DEF02F0120060AE8FEFAB
:1005180002F091EF02F0B0EF02F063CF01F064CF88
:1005280002F061CF03F062CF04F065CF05F066CF2B
:1005380006F067CF07F068CF08F069CF09F06ACFF7
:100548000AF06BCF0BF06CCF0CF06DCF0DF0609E06
:10055800A490010EB1EF02F0000E1200939493865E
:100568001F0E6F166F8E800E6E18D8A4BEEF02F0A5
:10057800C0EF02F0B7EF02F0776AE10E706E1B0E63
:10058800716E030E726E010E0D01D46F0F01026BB6
:10059800036B6B0E006FC00E016F1F0E6F166F504E
:1005A800606A12000F01436B446B6B0E416FC00E03
:1005B800426F080E456F06C046FF07C047FF08C0D8
:1005C80048FF09C049FF0AC04AFF0BC04BFF0CC0D7
:1005D8004CFF0DC04DFF4087120000EE01F0280EC1
:1005E800EE6AE806FDE149904992000EF86E0001B6
:1005F800C6EF01F006009EAA04EF03F006EF03F031
:1006080009EF03F0AECF28F09E9A49921100296EA7
:100618009EA811EF03F013EF03F00CEF03F029C0CD
:10062800ADFF1200948E949CAC84AB8EAB88810E87
:10063800AF6E9D8A9E9A1200F28CF28EB2EC02F096
:0606480016EC03F01200A5
:102FDA0000456E74657220505F4944202D3E2000E2
:102FEA00456E74657220555F5354202D3E20000DA6
:062FFA000A000A0D0000B0
:020000040020DA
:08000000FFFFFFFFFFFFFFFF00
:020000040030CA
:0E000000FF071F1FFF8285FF0FC00FE00F409C
:00000001FF
