:020000040000FA
:0400000007EF00F016
:0A0008005E827EED08F035EF09F08E
:1006000000002150D8A407EF03F009EF03F074EFC6
:1006100003F0010E216E00016E6B056A000E446E40
:10062000000E436E4350650FD96EDA6A4350500F87
:10063000E16EE26AE75065EC0AF0300FDF6E434A84
:10064000442A44BE2DEF03F0445009E1040E435CFC
:10065000D8A02DEF03F02FEF03F012EF03F000010D
:10066000696B6A0E296E650E2A6E2AEC08F0295015
:100670002A10D8A43EEF03F040EF03F074EF03F02C
:10068000010E156E03500A0DF3CF37F0F4CF38F09A
:100690000250640DF3CF39F0F4CF3AF001503B6EC5
:1006A0003C6AE80E3B02F3CF3DF0F4CF3EF03C0253
:1006B000F3503E26030E3B02F3503E2639503D24B4
:1006C0003F6E3A503E20406E37503F24416E3850C6
:1006D0004020426E04504126000E4222B00E4124BA
:1006E000086E2F0E4220096E1504D8A47AEF03F08D
:1006F0007CEF03F07AEF04F0C2EC09F0376E37506C
:100700000A6E0B6A030E2C6EE80E2B6E08C029F0E1
:1007100009C02AF0FBEC08F029C030F02AC031F003
:10072000000E336E0A0E326E68EC09F03050460F40
:10073000D96EDA6ADF50246E000E2C6E640E2B6EBA
:1007400008C029F009C02AF0FBEC08F029C030F0FD
:100750002AC031F0000E336E0A0E326E68EC09F0DA
:100760003050460FD96EDA6ADF50256E000E2C6EBF
:100770000A0E2B6E08C029F009C02AF0FBEC08F025
:1007800029C030F02AC031F0000E336E0A0E326EEE
:1007900068EC09F03050460FD96EDA6ADF50266EE9
:1007A00008C030F009C031F0000E336E0A0E326E10
:1007B00068EC09F03050460FD96EDA6ADF50276EC8
:1007C000240E296EBFEC08F00E0E0A180B10D8A4E8
:1007D000ECEF03F0EEEF03F0F0EF03F0084A092A24
:1007E0000D0E0A180B10D8A4F8EF03F0FAEF03F07F
:1007F000FDEF03F00806D8A009060B0E0A180B102F
:10080000D8A405EF04F007EF04F083EF04F0030E23
:100810002C6EE80E2B6E08C029F009C02AF0FBEC04
:1008200008F029C030F02AC031F0000E336E0A0EF5
:10083000326E68EC09F03050356E54502EEC0AF0F0
:10084000000E2C6E640E2B6E08C029F009C02AF031
:10085000FBEC08F029C030F02AC031F0000E336EF6
:100860000A0E326E68EC09F03050356E55502EECA1
:100870000AF0000E2C6E0A0E2B6E08C029F009C07B
:100880002AF0FBEC08F029C030F02AC031F0000E4D
:10089000336E0A0E326E68EC09F03050356E5650E9
:1008A0002EEC0AF008C030F009C031F0000E336EB3
:1008B0000A0E326E68EC09F03050356E57502EEC4F
:1008C0000AF01A0E386E5E0E376E6E0EE82EFED7E8
:1008D000372EFCD7382EFAD700D08050F00B806E20
:1008E000000E136E000E126E1F6A040E5D6E166A05
:1008F00083EF04F006C012F007C013F014C01FF01D
:10090000166A216A156A1200C2EC09F0376E375078
:100910000C6E0D6A2250D8A490EF04F092EF04F010
:100920006FEF05F0010E226E1A50460FD96EDA6A8B
:10093000DF50246E1950460FD96EDA6ADF50256EEB
:100940001850460FD96EDA6ADF50266E1750460FE0
:10095000D96EDA6ADF501009276E6FEF05F00E0EC0
:100960000C180D10D8A4B7EF04F0B9EF04F0C4EFE1
:1009700004F01A2A0A0E1A18D8A4C1EF04F0C3EF23
:1009800004F0C4EF04F01A6A1A50460FD96EDA6AFE
:10099000DF501009246E1950460FD96EDA6ADF5005
:1009A000256E1850460FD96EDA6ADF50266E175042
:1009B000460FD96EDA6ADF50276E82EF05F00E0E11
:1009C0000C180D10D8A4E7EF04F0E9EF04F0F4EFF1
:1009D00004F0192A0A0E1918D8A4F1EF04F0F3EF65
:1009E00004F0F4EF04F0196A1A50460FD96EDA6A6F
:1009F000DF50246E1950460FD96EDA6ADF501009A5
:100A0000256E1850460FD96EDA6ADF50266E1750E1
:100A1000460FD96EDA6ADF50276E82EF05F00E0EB0
:100A20000C180D10D8A417EF05F019EF05F024EFFE
:100A300005F0182A0A0E1818D8A421EF05F023EFA4
:100A400005F024EF05F0186A1A50460FD96EDA6ADD
:100A5000DF50246E1950460FD96EDA6ADF50256ECA
:100A60001850460FD96EDA6ADF501009266E1750FB
:100A7000460FD96EDA6ADF50276E82EF05F00E0E50
:100A80000C180D10D8A447EF05F049EF05F054EF0E
:100A900005F0172A0A0E1718D8A451EF05F053EFE6
:100AA00005F054EF05F0176A1A50460FD96EDA6A4E
:100AB000DF50246E1950460FD96EDA6ADF50256E6A
:100AC0001850460FD96EDA6ADF50266E1750460F5F
:100AD000D96EDA6ADF501009276E82EF05F05D509B
:100AE000010AD8B4AFEF04F0030AD8B4DFEF04F082
:100AF000010AD8B40FEF05F0070AD8B43FEF05F0AC
:100B000082EF05F00D0E0C180D10D8A48AEF05F039
:100B10008CEF05F097EF05F05D065D50D8A493EFDC
:100B200005F095EF05F097EF05F0040E5D6E240ECD
:100B3000296EBFEC08F00B0E0C180D10D8A4A3EF13
:100B400005F0A5EF05F0E5EF05F08050F00B806EA5
:100B5000000E136E000E126E1F6A5D6A166A1EC0CA
:100B600035F054502EEC0AF01DC035F055502EECE7
:100B70000AF01CC035F056502EEC0AF01BC035F0C0
:100B800057502EEC0AF01AC035F050502EEC0AF0F7
:100B900019C035F051502EEC0AF018C035F0525003
:100BA0002EEC0AF017C035F053502EEC0AF00BEC87
:100BB0000AF01A0E386E5E0E376E6E0EE82EFED7F5
:100BC000372EFCD7382EFAD700D01200C2EC09F02D
:100BD000376E37500E6E0F6A2350D8A4F2EF05F02F
:100BE000F4EF05F0D1EF06F0010E236E1E50460F14
:100BF000D96EDA6ADF50246E1D50460FD96EDA6A5C
:100C0000DF50256E1C50460FD96EDA6ADF50266E13
:100C10001B50460FD96EDA6ADF501009276ED1EFEC
:100C200006F00E0E0E180F10D8A419EF06F01BEFE9
:100C300006F026EF06F01E2A0A0E1E18D8A423EF8F
:100C400006F025EF06F026EF06F01E6A1E50460F4E
:100C5000D96EDA6ADF501009246E1D50460FD96E26
:100C6000DA6ADF50256E1C50460FD96EDA6ADF5003
:100C7000266E1B50460FD96EDA6ADF50276EE4EFFE
:100C800006F00E0E0E180F10D8A449EF06F04BEF29
:100C900006F056EF06F01D2A0A0E1D18D8A453EFD1
:100CA00006F055EF06F056EF06F01D6A1E50460F8F
:100CB000D96EDA6ADF50246E1D50460FD96EDA6A9B
:100CC000DF501009256E1C50460FD96EDA6ADF50CE
:100CD000266E1B50460FD96EDA6ADF50276EE4EF9E
:100CE00006F00E0E0E180F10D8A479EF06F07BEF69
:100CF00006F086EF06F01C2A0A0E1C18D8A483EF13
:100D000006F085EF06F086EF06F01C6A1E50460FCF
:100D1000D96EDA6ADF50246E1D50460FD96EDA6A3A
:100D2000DF50256E1C50460FD96EDA6ADF5010096D
:100D3000266E1B50460FD96EDA6ADF50276EE4EF3D
:100D400006F00E0E0E180F10D8A4A9EF06F0ABEFA8
:100D500006F0B6EF06F01B2A0A0E1B18D8A4B3EF54
:100D600006F0B5EF06F0B6EF06F01B6A1E50460F10
:100D7000D96EDA6ADF50246E1D50460FD96EDA6ADA
:100D8000DF50256E1C50460FD96EDA6ADF50266E92
:100D90001B50460FD96EDA6ADF501009276EE4EF58
:100DA00006F05D50010AD8B411EF06F0030AD8B47A
:100DB00041EF06F0010AD8B471EF06F0070AD8B483
:100DC000A1EF06F0E4EF06F00D0E0E180F10D8A4F8
:100DD000ECEF06F0EEEF06F0F9EF06F05D065D5081
:100DE000D8A4F5EF06F0F7EF06F0F9EF06F0040EE1
:100DF0005D6E240E296EBFEC08F00B0E0E180F105E
:100E0000D8A405EF07F007EF07F047EF07F0805091
:100E1000F00B806E000E136E000E126E1F6A5D6A7C
:100E2000166A1EC035F054502EEC0AF01DC035F085
:100E300055502EEC0AF01CC035F056502EEC0AF03E
:100E40001BC035F057502EEC0AF01AC035F0505048
:100E50002EEC0AF019C035F051502EEC0AF018C0F3
:100E600035F052502EEC0AF017C035F053502EECEE
:100E70000AF00BEC0AF01A0E386E5E0E376E6E0E2C
:100E8000E82EFED7372EFCD7382EFAD700D0120026
:100E90005CEC0AF09AEC09F00009D8B452EF07F0C4
:100EA00054EF07F063EF07F012C006F013C007F02D
:100EB000000E136E000E126E1FC014F01F6A010E9A
:100EC000166E216A156A12501310D8B46AEF07F033
:100ED0006CEF07F0E3EF07F0C2EC09F0456E455008
:100EE000106E116A0B0E10181110D8A47AEF07F0CB
:100EF0007CEF07F087EF07F02050D8B482EF07F0BF
:100F000085EF07F0010E86EF07F0000E206E2050EF
:100F1000D8A48DEF07F08FEF07F0B7EF07F00D0EB5
:100F200010181110D8A497EF07F099EF07F0A1EF70
:100F300007F0010E1F6E040E5D6E000E136E000EA4
:100F4000126E1F50D8A4A7EF07F0A9EF07F0E3EF48
:100F500007F058C024F059C025F05AC026F05BC0F5
:100F600027F0240E296EBFEC08F0E3EF07F02050C5
:100F7000D8B4BDEF07F0BFEF07F0E3EF07F00D0EB9
:100F800010181110D8A4C7EF07F0C9EF07F0D1EF80
:100F900007F0020E1F6E040E5D6E000E136E000E43
:100FA000126E1F50D8A4D7EF07F0D9EF07F0E3EF88
:100FB00007F06FC024F070C025F071C026F072C039
:100FC00027F0B1EF07F012501310D8A4EAEF07F0A2
:100FD000ECEF07F0F8EF07F01F04D8A4F2EF07F0EA
:100FE000F4EF07F0F8EF07F0E6EC05F04AEF07F052
:100FF00012501310D8A4FFEF07F001EF08F00EEF26
:1010000008F0020E1F18D8A408EF08F00AEF08F045
:101010000EEF08F084EC04F04AEF07F012501310C2
:10102000D8A415EF08F017EF08F023EF08F0160426
:10103000D8A41DEF08F01FEF08F023EF08F001EC33
:1010400003F04AEF07F08050F00B806E4AEF07F094
:1010500007EF00F0000E2E6E000E2D6E49EF08F027
:101060002A502D24D96EDA6A29502D24E16EE26AC5
:10107000DE50E618D8B43FEF08F041EF08F047EF34
:1010800008F0000E2A6E010E296E7DEF08F02D4A41
:101090002E2A29502D24D96EDA6ADF50D8B453EFA6
:1010A00008F055EF08F061EF08F02A502D24D96EB2
:1010B000DA6ADF50D8A45FEF08F061EF08F030EF94
:1010C00008F029502D24D96EDA6ADF50D8A46BEFCE
:1010D00008F06DEF08F041EF08F02A502D24D96E8A
:1010E000DA6ADF50D8A477EF08F079EF08F041EF23
:1010F00008F0000E2A6E000E296E12000600F2A201
:1011000084EF08F086EF08F0BDEF08F012501310DE
:10111000D8B48DEF08F090EF08F0010E91EF08F0D1
:10112000000E126E136A54506EEC0AF01E6E55508B
:101130006EEC0AF01D6E56506EEC0AF01C6E5750A5
:101140006EEC0AF01B6E50506EEC0AF01A6E5150A5
:101150006EEC0AF0196E52506EEC0AF0186E535095
:101160006EEC0AF0176E206A1F6A040E5D6E236A29
:10117000226A166A216A156AF2925E921100000EC6
:101180002F6E000E2E6E29502E24D96EDA6ADF5093
:10119000836E2EC02AF0010E2B6E2A2AD2EF08F0A1
:1011A000D8902B362A2ED0EF08F08050F00B2B1061
:1011B000806E010E2D6EF40E2C6E2C06D8A02D061E
:1011C0002C2806E12D28D8A4E8EF08F0EAEF08F073
:1011D000DDEF08F02E4A2F2A2FBEF8EF08F02F502F
:1011E00009E1040E2E5CD8A0F8EF08F0FAEF08F041
:1011F000C3EF08F01200000E2E6E000E2D6E2B5065
:101200002C10D8B406EF09F008EF09F030EF09F020
:10121000010E2F6E10EF09F0D8902B362C362F2AA6
:101220002CAE15EF09F017EF09F00CEF09F0D8908C
:101230002D362E362B50295C2C502A58D8A023EF5F
:1012400009F025EF09F02AEF09F02B50295E2C5008
:101250002A5A2D80D8902C322B322F2E17EF09F0DE
:101260002DC029F02EC02AF01200020EF66E150EC7
:10127000F76E000EF86E00EE6FF010EE04F009004D
:10128000F5CFEEFFE550E150FAE18C0EF66E140E4C
:10129000F76E000EF86E00EE46F010EE18F0090042
:1012A000F5CFEEFFE550E150FAE100EE60F00F0EF1
:1012B000EE6AE806FDE100EE01F0270EEE6AE806B0
:1012C000FDE15E905E92000EF86E000148EF07F0BF
:1012D00032503310D8B46FEF09F071EF09F095EF89
:1012E00009F0010E346E79EF09F0D89032363336BA
:1012F000342A33AE7EEF09F080EF09F075EF09F084
:101300003250305C33503158D8A089EF09F08BEF60
:1013100009F08FEF09F03250305E3350315AD890D7
:1013200033323232342E80EF09F030C030F031C029
:1013300031F0120060AE9FEF09F0A1EF09F0C0EFAD
:1013400009F063CF60F064CF61F061CF62F062CFEB
:1013500063F065CF64F066CF01F067CF02F068CF2D
:1013600003F069CF04F06ACF6AF06BCF6BF06CCFFB
:101370006CF06DCF6DF0609EA490010EC1EF09F08E
:10138000000E120082500F0B0F0AD8B4CAEF09F0FA
:10139000CCEF09F0D9EF09F05C50D8B4D2EF09F0E6
:1013A000D4EF09F0D9EF09F05C6A82500F0BE6EF39
:1013B00009F082500F0B0F0AD8A4E1EF09F0E3EF18
:1013C00009F0E5EF09F0010E5C6E0F0E1200939428
:1013D00093861F0E6F166F8E800E6E18D8A4F3EFD3
:1013E00009F0F5EF09F0ECEF09F0776AE10E706EA5
:1013F0001B0E716E030E726E010E0D01D46F0F0184
:10140000026B036B6B0E006FC00E016F1F0E6F1629
:101410006F50606A12000F01436B446B6B0E416F9B
:10142000C00E426F080E456F1E50300F466F1D50A4
:10143000300F476F1C50300F486F1B50300F496FF3
:101440001A50300F4A6F1950300F4B6F1850300F31
:101450004C6F1750300F4D6F40871200366E36C0FC
:10146000A9FF35C0A8FFA69EA69CA684F29E550E95
:10147000A76EAA0EA76EA682F28EA6B242EF0AF05F
:1014800044EF0AF03DEF0AF0A6941200E721CB6B7F
:101490002D6EEE23EF6F0405060700010203E54001
:1014A0006ECC0104956A9250F00B926E8050F00B56
:1014B000806E0F0EC16E120077EC0AF052EC0AF04B
:1014C0007DEC0AF0E7EC09F01200296E29C0A9FFB3
:1014D000A69EA69CA694A680A8501200286E28C09E
:1014E000A9FFA69EA69CA694A680A8501200F28CE6
:1014F000F28EF18CF292F288120094500F09946EE1
:0615000012008F4084E997
:020000040020DA
:08000000FFFFFFFFFFFFFFFF00
:020000040030CA
:0E000000FF071F1FFF8285FF0FC00FE00F409C
:00000001FF
